{
  "contractName": "Shop",
  "abi": [
    {
      "inputs": [
        {
          "internalType": "contract NFTicket",
          "name": "_nfticket",
          "type": "address"
        },
        {
          "internalType": "address",
          "name": "_newOwner",
          "type": "address"
        }
      ],
      "stateMutability": "nonpayable",
      "type": "constructor"
    },
    {
      "anonymous": false,
      "inputs": [
        {
          "indexed": true,
          "internalType": "address",
          "name": "previousOwner",
          "type": "address"
        },
        {
          "indexed": true,
          "internalType": "address",
          "name": "newOwner",
          "type": "address"
        }
      ],
      "name": "OwnershipTransferred",
      "type": "event"
    },
    {
      "inputs": [],
      "name": "nfticket",
      "outputs": [
        {
          "internalType": "contract NFTicket",
          "name": "",
          "type": "address"
        }
      ],
      "stateMutability": "view",
      "type": "function",
      "constant": true
    },
    {
      "inputs": [],
      "name": "owner",
      "outputs": [
        {
          "internalType": "address",
          "name": "",
          "type": "address"
        }
      ],
      "stateMutability": "view",
      "type": "function",
      "constant": true
    },
    {
      "inputs": [],
      "name": "renounceOwnership",
      "outputs": [],
      "stateMutability": "nonpayable",
      "type": "function"
    },
    {
      "inputs": [
        {
          "internalType": "address",
          "name": "newOwner",
          "type": "address"
        }
      ],
      "name": "transferOwnership",
      "outputs": [],
      "stateMutability": "nonpayable",
      "type": "function"
    },
    {
      "inputs": [
        {
          "internalType": "uint256[]",
          "name": "listOfQuantitiesById",
          "type": "uint256[]"
        }
      ],
      "name": "createTicketSale",
      "outputs": [],
      "stateMutability": "nonpayable",
      "type": "function"
    },
    {
      "inputs": [
        {
          "internalType": "address",
          "name": "_buyer",
          "type": "address"
        },
        {
          "internalType": "uint256",
          "name": "_id",
          "type": "uint256"
        },
        {
          "internalType": "uint256",
          "name": "_amount",
          "type": "uint256"
        }
      ],
      "name": "grantTickets",
      "outputs": [],
      "stateMutability": "nonpayable",
      "type": "function"
    },
    {
      "inputs": [
        {
          "internalType": "address",
          "name": "",
          "type": "address"
        },
        {
          "internalType": "address",
          "name": "",
          "type": "address"
        },
        {
          "internalType": "uint256",
          "name": "",
          "type": "uint256"
        },
        {
          "internalType": "uint256",
          "name": "",
          "type": "uint256"
        },
        {
          "internalType": "bytes",
          "name": "",
          "type": "bytes"
        }
      ],
      "name": "onERC1155Received",
      "outputs": [
        {
          "internalType": "bytes4",
          "name": "",
          "type": "bytes4"
        }
      ],
      "stateMutability": "pure",
      "type": "function",
      "constant": true
    },
    {
      "inputs": [
        {
          "internalType": "address",
          "name": "",
          "type": "address"
        },
        {
          "internalType": "address",
          "name": "",
          "type": "address"
        },
        {
          "internalType": "uint256[]",
          "name": "",
          "type": "uint256[]"
        },
        {
          "internalType": "uint256[]",
          "name": "",
          "type": "uint256[]"
        },
        {
          "internalType": "bytes",
          "name": "",
          "type": "bytes"
        }
      ],
      "name": "onERC1155BatchReceived",
      "outputs": [
        {
          "internalType": "bytes4",
          "name": "",
          "type": "bytes4"
        }
      ],
      "stateMutability": "pure",
      "type": "function",
      "constant": true
    }
  ],
  "bytecode": "0x60806040523480156200001157600080fd5b5060405162001494380380620014948339818101604052810190620000379190620002fc565b620000576200004b620000b160201b60201c565b620000b960201b60201c565b81600160006101000a81548173ffffffffffffffffffffffffffffffffffffffff021916908373ffffffffffffffffffffffffffffffffffffffff160217905550620000a9816200017d60201b60201c565b5050620004d4565b600033905090565b60008060009054906101000a900473ffffffffffffffffffffffffffffffffffffffff169050816000806101000a81548173ffffffffffffffffffffffffffffffffffffffff021916908373ffffffffffffffffffffffffffffffffffffffff1602179055508173ffffffffffffffffffffffffffffffffffffffff168173ffffffffffffffffffffffffffffffffffffffff167f8be0079c531659141344cd1fd0a4f28419497f9722a3daafe3b4186f6b6457e060405160405180910390a35050565b6200018d6200021460201b60201c565b600073ffffffffffffffffffffffffffffffffffffffff168173ffffffffffffffffffffffffffffffffffffffff16141562000200576040517f08c379a0000000000000000000000000000000000000000000000000000000008152600401620001f7906200038b565b60405180910390fd5b6200021181620000b960201b60201c565b50565b62000224620000b160201b60201c565b73ffffffffffffffffffffffffffffffffffffffff166200024a620002a560201b60201c565b73ffffffffffffffffffffffffffffffffffffffff1614620002a3576040517f08c379a00000000000000000000000000000000000000000000000000000000081526004016200029a90620003ad565b60405180910390fd5b565b60008060009054906101000a900473ffffffffffffffffffffffffffffffffffffffff16905090565b600081519050620002df81620004a0565b92915050565b600081519050620002f681620004ba565b92915050565b600080604083850312156200031057600080fd5b60006200032085828601620002e5565b92505060206200033385828601620002ce565b9150509250929050565b60006200034c602683620003cf565b9150620003598262000428565b604082019050919050565b600062000373602083620003cf565b9150620003808262000477565b602082019050919050565b60006020820190508181036000830152620003a6816200033d565b9050919050565b60006020820190508181036000830152620003c88162000364565b9050919050565b600082825260208201905092915050565b6000620003ed8262000408565b9050919050565b60006200040182620003e0565b9050919050565b600073ffffffffffffffffffffffffffffffffffffffff82169050919050565b7f4f776e61626c653a206e6577206f776e657220697320746865207a65726f206160008201527f6464726573730000000000000000000000000000000000000000000000000000602082015250565b7f4f776e61626c653a2063616c6c6572206973206e6f7420746865206f776e6572600082015250565b620004ab81620003e0565b8114620004b757600080fd5b50565b620004c581620003f4565b8114620004d157600080fd5b50565b610fb080620004e46000396000f3fe608060405234801561001057600080fd5b50600436106100885760003560e01c8063bc197c811161005b578063bc197c81146100ef578063f1b4d1151461011f578063f23a6e611461013b578063f2fde38b1461016b57610088565b80630b7e75361461008d5780635be4cd7f146100ab578063715018a6146100c75780638da5cb5b146100d1575b600080fd5b610095610187565b6040516100a29190610c23565b60405180910390f35b6100c560048036038101906100c09190610a80565b6101ad565b005b6100cf610391565b005b6100d96103a5565b6040516100e69190610bb6565b60405180910390f35b610109600480360381019061010491906108d3565b6103ce565b6040516101169190610c08565b60405180910390f35b61013960048036038101906101349190610a31565b6103e6565b005b6101556004803603810190610150919061099f565b6104c7565b6040516101629190610c08565b60405180910390f35b610185600480360381019061018091906108aa565b6104dd565b005b600160009054906101000a900473ffffffffffffffffffffffffffffffffffffffff1681565b6101b5610561565b6000600160009054906101000a900473ffffffffffffffffffffffffffffffffffffffff1673ffffffffffffffffffffffffffffffffffffffff166349c0561e6040518163ffffffff1660e01b815260040160006040518083038186803b15801561021f57600080fd5b505afa158015610233573d6000803e3d6000fd5b505050506040513d6000823e3d601f19601f8201168201806040525081019061025c9190610ac1565b905060005b815181101561038c57600160009054906101000a900473ffffffffffffffffffffffffffffffffffffffff1673ffffffffffffffffffffffffffffffffffffffff16638ee6f44f8383815181106102e1577f4e487b7100000000000000000000000000000000000000000000000000000000600052603260045260246000fd5b6020026020010151858481518110610322577f4e487b7100000000000000000000000000000000000000000000000000000000600052603260045260246000fd5b60200260200101516040518363ffffffff1660e01b8152600401610347929190610c9e565b600060405180830381600087803b15801561036157600080fd5b505af1158015610375573d6000803e3d6000fd5b50505050808061038490610df3565b915050610261565b505050565b610399610561565b6103a360006105df565b565b60008060009054906101000a900473ffffffffffffffffffffffffffffffffffffffff16905090565b600063bc197c8160e01b905098975050505050505050565b6103ee610561565b60008111610431576040517f08c379a000000000000000000000000000000000000000000000000000000000815260040161042890610c7e565b60405180910390fd5b600160009054906101000a900473ffffffffffffffffffffffffffffffffffffffff1673ffffffffffffffffffffffffffffffffffffffff1663f009bd238484846040518463ffffffff1660e01b815260040161049093929190610bd1565b600060405180830381600087803b1580156104aa57600080fd5b505af11580156104be573d6000803e3d6000fd5b50505050505050565b600063f23a6e6160e01b90509695505050505050565b6104e5610561565b600073ffffffffffffffffffffffffffffffffffffffff168173ffffffffffffffffffffffffffffffffffffffff161415610555576040517f08c379a000000000000000000000000000000000000000000000000000000000815260040161054c90610c3e565b60405180910390fd5b61055e816105df565b50565b6105696106a3565b73ffffffffffffffffffffffffffffffffffffffff166105876103a5565b73ffffffffffffffffffffffffffffffffffffffff16146105dd576040517f08c379a00000000000000000000000000000000000000000000000000000000081526004016105d490610c5e565b60405180910390fd5b565b60008060009054906101000a900473ffffffffffffffffffffffffffffffffffffffff169050816000806101000a81548173ffffffffffffffffffffffffffffffffffffffff021916908373ffffffffffffffffffffffffffffffffffffffff1602179055508173ffffffffffffffffffffffffffffffffffffffff168173ffffffffffffffffffffffffffffffffffffffff167f8be0079c531659141344cd1fd0a4f28419497f9722a3daafe3b4186f6b6457e060405160405180910390a35050565b600033905090565b60006106be6106b984610cec565b610cc7565b905080838252602082019050828560208602820111156106dd57600080fd5b60005b8581101561070d57816106f38882610880565b8452602084019350602083019250506001810190506106e0565b5050509392505050565b600061072a61072584610cec565b610cc7565b9050808382526020820190508285602086028201111561074957600080fd5b60005b85811015610779578161075f8882610895565b84526020840193506020830192505060018101905061074c565b5050509392505050565b60008135905061079281610f4c565b92915050565b60008083601f8401126107aa57600080fd5b8235905067ffffffffffffffff8111156107c357600080fd5b6020830191508360208202830111156107db57600080fd5b9250929050565b600082601f8301126107f357600080fd5b81356108038482602086016106ab565b91505092915050565b600082601f83011261081d57600080fd5b815161082d848260208601610717565b91505092915050565b60008083601f84011261084857600080fd5b8235905067ffffffffffffffff81111561086157600080fd5b60208301915083600182028301111561087957600080fd5b9250929050565b60008135905061088f81610f63565b92915050565b6000815190506108a481610f63565b92915050565b6000602082840312156108bc57600080fd5b60006108ca84828501610783565b91505092915050565b60008060008060008060008060a0898b0312156108ef57600080fd5b60006108fd8b828c01610783565b985050602061090e8b828c01610783565b975050604089013567ffffffffffffffff81111561092b57600080fd5b6109378b828c01610798565b9650965050606089013567ffffffffffffffff81111561095657600080fd5b6109628b828c01610798565b9450945050608089013567ffffffffffffffff81111561098157600080fd5b61098d8b828c01610836565b92509250509295985092959890939650565b60008060008060008060a087890312156109b857600080fd5b60006109c689828a01610783565b96505060206109d789828a01610783565b95505060406109e889828a01610880565b94505060606109f989828a01610880565b935050608087013567ffffffffffffffff811115610a1657600080fd5b610a2289828a01610836565b92509250509295509295509295565b600080600060608486031215610a4657600080fd5b6000610a5486828701610783565b9350506020610a6586828701610880565b9250506040610a7686828701610880565b9150509250925092565b600060208284031215610a9257600080fd5b600082013567ffffffffffffffff811115610aac57600080fd5b610ab8848285016107e2565b91505092915050565b600060208284031215610ad357600080fd5b600082015167ffffffffffffffff811115610aed57600080fd5b610af98482850161080c565b91505092915050565b610b0b81610d29565b82525050565b610b1a81610d3b565b82525050565b610b2981610d9e565b82525050565b6000610b3c602683610d18565b9150610b4782610eab565b604082019050919050565b6000610b5f602083610d18565b9150610b6a82610efa565b602082019050919050565b6000610b82601683610d18565b9150610b8d82610f23565b602082019050919050565b610ba181610d87565b82525050565b610bb081610d91565b82525050565b6000602082019050610bcb6000830184610b02565b92915050565b6000606082019050610be66000830186610b02565b610bf36020830185610b98565b610c006040830184610b98565b949350505050565b6000602082019050610c1d6000830184610b11565b92915050565b6000602082019050610c386000830184610b20565b92915050565b60006020820190508181036000830152610c5781610b2f565b9050919050565b60006020820190508181036000830152610c7781610b52565b9050919050565b60006020820190508181036000830152610c9781610b75565b9050919050565b6000604082019050610cb36000830185610ba7565b610cc06020830184610b98565b9392505050565b6000610cd1610ce2565b9050610cdd8282610dc2565b919050565b6000604051905090565b600067ffffffffffffffff821115610d0757610d06610e6b565b5b602082029050602081019050919050565b600082825260208201905092915050565b6000610d3482610d67565b9050919050565b60007fffffffff0000000000000000000000000000000000000000000000000000000082169050919050565b600073ffffffffffffffffffffffffffffffffffffffff82169050919050565b6000819050919050565b600060ff82169050919050565b6000610da982610db0565b9050919050565b6000610dbb82610d67565b9050919050565b610dcb82610e9a565b810181811067ffffffffffffffff82111715610dea57610de9610e6b565b5b80604052505050565b6000610dfe82610d87565b91507fffffffffffffffffffffffffffffffffffffffffffffffffffffffffffffffff821415610e3157610e30610e3c565b5b600182019050919050565b7f4e487b7100000000000000000000000000000000000000000000000000000000600052601160045260246000fd5b7f4e487b7100000000000000000000000000000000000000000000000000000000600052604160045260246000fd5b6000601f19601f8301169050919050565b7f4f776e61626c653a206e6577206f776e657220697320746865207a65726f206160008201527f6464726573730000000000000000000000000000000000000000000000000000602082015250565b7f4f776e61626c653a2063616c6c6572206973206e6f7420746865206f776e6572600082015250565b7f4d696e74206174206c65617374203120746f6b656e2100000000000000000000600082015250565b610f5581610d29565b8114610f6057600080fd5b50565b610f6c81610d87565b8114610f7757600080fd5b5056fea264697066735822122000d56ed22ccb7bc18fdc6d1a02153c28e7d36c131f673de539c3bba1b011f3ae64736f6c63430008020033",
  "immutableReferences": {},
  "source": "// SPDX-License-Identifier: MIT\npragma solidity ^0.8.2;\n\nimport \"./NFTicket.sol\";\n\ncontract Shop is Ownable {\n    \n    NFTicket public nfticket;\n\n    constructor(NFTicket _nfticket,address _newOwner) {\n        nfticket = _nfticket;\n        transferOwnership(_newOwner);\n    }\n\n\n\n    function createTicketSale(uint256[] memory listOfQuantitiesById) external onlyOwner() {\n        uint256[] memory avaiableIds = nfticket.getTicketIdentifierList();\n\n        for (uint256 i = 0; i < avaiableIds.length; i++) {\n            nfticket.mintTicket(uint8(avaiableIds[i]), listOfQuantitiesById[i]);\n        }\n        \n    }\n\n    function grantTickets (\n        address _buyer,\n        uint256 _id,\n        uint256 _amount\n    ) external onlyOwner(){\n        require(_amount>0,\"Mint at least 1 token!\");\n        nfticket.safeTransferFrom(_buyer, _id, _amount);\n    }\n\n    function onERC1155Received(\n        address,\n        address,\n        uint256,\n        uint256,\n        bytes calldata\n    ) external pure returns (bytes4) {\n        return this.onERC1155Received.selector;\n    }\n\n    function onERC1155BatchReceived(\n        address,\n        address,\n        uint256[] calldata,\n        uint256[] calldata,\n        bytes calldata\n    ) external pure returns (bytes4) {\n        return this.onERC1155BatchReceived.selector;\n    }\n}\n",
  "sourcePath": "/home/davi-2ndmarket/Documents/SecondMarketRepositories/NFTicket/contracts/Shop.sol",
  "compiler": {
    "name": "solc",
    "version": "0.8.2+commit.661d1103.Emscripten.clang"
  },
  "schemaVersion": "3.4.13",
  "updatedAt": "2023-05-30T19:01:23.633Z",
  "networkType": "ethereum",
  "devdoc": {
    "kind": "dev",
    "methods": {
      "owner()": {
        "details": "Returns the address of the current owner."
      },
      "renounceOwnership()": {
        "details": "Leaves the contract without owner. It will not be possible to call `onlyOwner` functions anymore. Can only be called by the current owner. NOTE: Renouncing ownership will leave the contract without an owner, thereby removing any functionality that is only available to the owner."
      },
      "transferOwnership(address)": {
        "details": "Transfers ownership of the contract to a new account (`newOwner`). Can only be called by the current owner."
      }
    },
    "version": 1
  },
  "userdoc": {
    "kind": "user",
    "methods": {},
    "version": 1
  }
}